{
  "contractName": "Casino",
  "abi": [
    {
      "constant": true,
      "inputs": [],
      "name": "numberOfBets",
      "outputs": [
        {
          "name": "",
          "type": "uint256"
        }
      ],
      "payable": false,
      "stateMutability": "view",
      "type": "function"
    },
    {
      "constant": true,
      "inputs": [
        {
          "name": "",
          "type": "address"
        }
      ],
      "name": "playerInfo",
      "outputs": [
        {
          "name": "amountBet",
          "type": "uint256"
        },
        {
          "name": "numberSelected",
          "type": "uint256"
        }
      ],
      "payable": false,
      "stateMutability": "view",
      "type": "function"
    },
    {
      "constant": true,
      "inputs": [],
      "name": "owner",
      "outputs": [
        {
          "name": "",
          "type": "address"
        }
      ],
      "payable": false,
      "stateMutability": "view",
      "type": "function"
    },
    {
      "constant": true,
      "inputs": [],
      "name": "minimumBet",
      "outputs": [
        {
          "name": "",
          "type": "uint256"
        }
      ],
      "payable": false,
      "stateMutability": "view",
      "type": "function"
    },
    {
      "constant": true,
      "inputs": [],
      "name": "maxAmountOfBets",
      "outputs": [
        {
          "name": "",
          "type": "uint256"
        }
      ],
      "payable": false,
      "stateMutability": "view",
      "type": "function"
    },
    {
      "constant": true,
      "inputs": [
        {
          "name": "",
          "type": "uint256"
        }
      ],
      "name": "players",
      "outputs": [
        {
          "name": "",
          "type": "address"
        }
      ],
      "payable": false,
      "stateMutability": "view",
      "type": "function"
    },
    {
      "constant": true,
      "inputs": [],
      "name": "totalBet",
      "outputs": [
        {
          "name": "",
          "type": "uint256"
        }
      ],
      "payable": false,
      "stateMutability": "view",
      "type": "function"
    },
    {
      "inputs": [
        {
          "name": "_minimumBet",
          "type": "uint256"
        }
      ],
      "payable": false,
      "stateMutability": "nonpayable",
      "type": "constructor"
    },
    {
      "constant": false,
      "inputs": [],
      "name": "kill",
      "outputs": [],
      "payable": false,
      "stateMutability": "nonpayable",
      "type": "function"
    },
    {
      "constant": true,
      "inputs": [
        {
          "name": "player",
          "type": "address"
        }
      ],
      "name": "checkPlayerExists",
      "outputs": [
        {
          "name": "",
          "type": "bool"
        }
      ],
      "payable": false,
      "stateMutability": "view",
      "type": "function"
    },
    {
      "constant": false,
      "inputs": [
        {
          "name": "numberSelected",
          "type": "uint256"
        }
      ],
      "name": "bet",
      "outputs": [],
      "payable": true,
      "stateMutability": "payable",
      "type": "function"
    },
    {
      "constant": false,
      "inputs": [],
      "name": "generateNumberWinner",
      "outputs": [],
      "payable": false,
      "stateMutability": "nonpayable",
      "type": "function"
    },
    {
      "constant": false,
      "inputs": [
        {
          "name": "numberWinner",
          "type": "uint256"
        }
      ],
      "name": "distributePrizes",
      "outputs": [],
      "payable": false,
      "stateMutability": "nonpayable",
      "type": "function"
    }
  ],
  "bytecode": "0x60606040526064600455341561001457600080fd5b604051602080610a3c83398101604052808051906020019091905050336000806101000a81548173ffffffffffffffffffffffffffffffffffffffff021916908373ffffffffffffffffffffffffffffffffffffffff16021790555060008114151561008257806001819055505b506109aa806100926000396000f3006060604052600436106100ba576000357c0100000000000000000000000000000000000000000000000000000000900463ffffffff1680630a50e361146100bf5780632ca8c6d3146100d45780634081d916146100fd57806341c0e1b51461014e5780634b114691146101635780636ca3fc3b146101b75780637365870b146101da5780638da5cb5b146101f2578063c38a8afd14610247578063e08a96cd14610270578063f71d96cb14610299578063fe5e1853146102fc575b600080fd5b34156100ca57600080fd5b6100d2610325565b005b34156100df57600080fd5b6100e7610345565b6040518082815260200191505060405180910390f35b341561010857600080fd5b610134600480803573ffffffffffffffffffffffffffffffffffffffff1690602001909190505061034b565b604051808215151515815260200191505060405180910390f35b341561015957600080fd5b6101616103ef565b005b341561016e57600080fd5b61019a600480803573ffffffffffffffffffffffffffffffffffffffff16906020019091905050610480565b604051808381526020018281526020019250505060405180910390f35b34156101c257600080fd5b6101d860048080359060200190919050506104a4565b005b6101f060048080359060200190919050506106dd565b005b34156101fd57600080fd5b61020561084c565b604051808273ffffffffffffffffffffffffffffffffffffffff1673ffffffffffffffffffffffffffffffffffffffff16815260200191505060405180910390f35b341561025257600080fd5b61025a610871565b6040518082815260200191505060405180910390f35b341561027b57600080fd5b610283610877565b6040518082815260200191505060405180910390f35b34156102a457600080fd5b6102ba600480803590602001909190505061087d565b604051808273ffffffffffffffffffffffffffffffffffffffff1673ffffffffffffffffffffffffffffffffffffffff16815260200191505060405180910390f35b341561030757600080fd5b61030f6108bc565b6040518082815260200191505060405180910390f35b60006001600a4381151561033557fe5b06019050610342816104a4565b50565b60035481565b600080600090505b6005805490508110156103e4578273ffffffffffffffffffffffffffffffffffffffff1660058281548110151561038657fe5b906000526020600020900160009054906101000a900473ffffffffffffffffffffffffffffffffffffffff1673ffffffffffffffffffffffffffffffffffffffff1614156103d757600191506103e9565b8080600101915050610353565b600091505b50919050565b6000809054906101000a900473ffffffffffffffffffffffffffffffffffffffff1673ffffffffffffffffffffffffffffffffffffffff163373ffffffffffffffffffffffffffffffffffffffff16141561047e576000809054906101000a900473ffffffffffffffffffffffffffffffffffffffff1673ffffffffffffffffffffffffffffffffffffffff16ff5b565b60066020528060005260406000206000915090508060000154908060010154905082565b6104ac6108c2565b6000806000806000809450600093505b6005805490508410156105fe576005848154811015156104d857fe5b906000526020600020900160009054906101000a900473ffffffffffffffffffffffffffffffffffffffff16925086600660008573ffffffffffffffffffffffffffffffffffffffff1673ffffffffffffffffffffffffffffffffffffffff16815260200190815260200160002060010154141561059f5782868660648110151561055f57fe5b602002019073ffffffffffffffffffffffffffffffffffffffff16908173ffffffffffffffffffffffffffffffffffffffff168152505084806001019550505b600660008473ffffffffffffffffffffffffffffffffffffffff1673ffffffffffffffffffffffffffffffffffffffff1681526020019081526020016000206000808201600090556001820160009055505083806001019450506104bc565b600060058161060d9190610901565b50606460025481151561061c57fe5b049150600090505b848110156106d457600073ffffffffffffffffffffffffffffffffffffffff16868260648110151561065257fe5b602002015173ffffffffffffffffffffffffffffffffffffffff161415156106c757858160648110151561068257fe5b602002015173ffffffffffffffffffffffffffffffffffffffff166108fc839081150290604051600060405180830381858888f1935050505015156106c657600080fd5b5b8080600101915050610624565b50505050505050565b6106e63361034b565b1515156106f257600080fd5b600181101580156107045750600a8111155b151561070f57600080fd5b600154341015151561072057600080fd5b34600660003373ffffffffffffffffffffffffffffffffffffffff1673ffffffffffffffffffffffffffffffffffffffff1681526020019081526020016000206000018190555080600660003373ffffffffffffffffffffffffffffffffffffffff1673ffffffffffffffffffffffffffffffffffffffff16815260200190815260200160002060010181905550600360008154809291906001019190505550600580548060010182816107d4919061092d565b9160005260206000209001600033909190916101000a81548173ffffffffffffffffffffffffffffffffffffffff021916908373ffffffffffffffffffffffffffffffffffffffff160217905550503460026000828254019250508190555060045460035410151561084957610848610325565b5b50565b6000809054906101000a900473ffffffffffffffffffffffffffffffffffffffff1681565b60015481565b60045481565b60058181548110151561088c57fe5b90600052602060002090016000915054906101000a900473ffffffffffffffffffffffffffffffffffffffff1681565b60025481565b610c80604051908101604052806064905b600073ffffffffffffffffffffffffffffffffffffffff168152602001906001900390816108d35790505090565b815481835581811511610928578183600052602060002091820191016109279190610959565b5b505050565b815481835581811511610954578183600052602060002091820191016109539190610959565b5b505050565b61097b91905b8082111561097757600081600090555060010161095f565b5090565b905600a165627a7a72305820d49321dff4713ba554f8e9413e0af9539699a9e5d454a30c13aa82643e4425630029",
  "source": "pragma solidity 0.4.20;\ncontract Casino {\n   address public owner;\n   uint256 public minimumBet;\n   uint256 public totalBet;\n   uint256 public numberOfBets;\n   uint256 public maxAmountOfBets = 100;\n   address[] public players;\n   struct Player {\n      uint256 amountBet;\n      uint256 numberSelected;\n   }\n   // The address of the player and => the user info   \n   mapping(address => Player) public playerInfo;\n   function Casino(uint256 _minimumBet) public {\n      owner = msg.sender;\n      if(_minimumBet != 0 ) minimumBet = _minimumBet;\n   }\n   function kill() public {\n      if(msg.sender == owner) selfdestruct(owner);\n   }\n    function checkPlayerExists(address player) public constant returns(bool){\n      for(uint256 i = 0; i < players.length; i++){\n         if(players[i] == player) return true;\n      }\n      return false;\n   }\n\n   // To bet for a number between 1 and 10 both inclusive\n   function bet(uint256 numberSelected) public payable {\n      require(!checkPlayerExists(msg.sender));\n      require(numberSelected >= 1 && numberSelected <= 10);\n      require(msg.value >= minimumBet);\n      playerInfo[msg.sender].amountBet = msg.value;\n      playerInfo[msg.sender].numberSelected = numberSelected;\n      numberOfBets++;\n      players.push(msg.sender);\n      totalBet += msg.value;\n      if(numberOfBets >= maxAmountOfBets) generateNumberWinner();\n   }\n\n     // Generates a number between 1 and 10 that will be the winner\n   function generateNumberWinner() public {\n      uint256 numberGenerated = block.number % 10 + 1; // This isn't secure\n      distributePrizes(numberGenerated);\n   }\n   // Sends the corresponding ether to each winner depending on the total bets\n   function distributePrizes(uint256 numberWinner) public {\n      address[100] memory winners; // We have to create a temporary in memory array with fixed size\n      uint256 count = 0; // This is the count for the array of winners\n      for(uint256 i = 0; i < players.length; i++){\n         address playerAddress = players[i];\n         if(playerInfo[playerAddress].numberSelected == numberWinner){\n            winners[count] = playerAddress;\n            count++;\n         }\n         delete playerInfo[playerAddress]; // Delete all the players\n      }\n      players.length = 0; // Delete all the players array\n      uint256 winnerEtherAmount = totalBet / winners.length; // How much each winner gets\n      for(uint256 j = 0; j < count; j++){\n         if(winners[j] != address(0)) // Check that the address in this fixed array is not empty\n         winners[j].transfer(winnerEtherAmount);\n      }\n   }\n}",
  "sourcePath": "/home/wmordy/Projects/Blockchain/decentralized-application/contracts/casino.sol",
  "compiler": {
    "name": "solc",
    "version": "0.4.20+commit.3155dd80.Emscripten.clang"
  },
  "schemaVersion": "3.4.4",
  "updatedAt": "2022-01-23T19:55:18.286Z",
  "devdoc": {
    "methods": {}
  },
  "userdoc": {
    "methods": {}
  }
}